{
  "contractName": "KryptoBird",
  "abi": [
    {
      "inputs": [],
      "stateMutability": "nonpayable",
      "type": "constructor"
    },
    {
      "anonymous": false,
      "inputs": [
        {
          "indexed": true,
          "internalType": "address",
          "name": "from",
          "type": "address"
        },
        {
          "indexed": true,
          "internalType": "address",
          "name": "to",
          "type": "address"
        },
        {
          "indexed": true,
          "internalType": "uint256",
          "name": "tokenId",
          "type": "uint256"
        }
      ],
      "name": "Transfer",
      "type": "event"
    },
    {
      "inputs": [
        {
          "internalType": "address",
          "name": "_owner",
          "type": "address"
        }
      ],
      "name": "balanceOf",
      "outputs": [
        {
          "internalType": "uint256",
          "name": "",
          "type": "uint256"
        }
      ],
      "stateMutability": "view",
      "type": "function",
      "constant": true
    },
    {
      "inputs": [
        {
          "internalType": "uint256",
          "name": "",
          "type": "uint256"
        }
      ],
      "name": "kryptoBirdz",
      "outputs": [
        {
          "internalType": "string",
          "name": "",
          "type": "string"
        }
      ],
      "stateMutability": "view",
      "type": "function",
      "constant": true
    },
    {
      "inputs": [],
      "name": "name",
      "outputs": [
        {
          "internalType": "string",
          "name": "",
          "type": "string"
        }
      ],
      "stateMutability": "view",
      "type": "function",
      "constant": true
    },
    {
      "inputs": [
        {
          "internalType": "uint256",
          "name": "_tokenId",
          "type": "uint256"
        }
      ],
      "name": "ownerOf",
      "outputs": [
        {
          "internalType": "address",
          "name": "",
          "type": "address"
        }
      ],
      "stateMutability": "view",
      "type": "function",
      "constant": true
    },
    {
      "inputs": [],
      "name": "symbol",
      "outputs": [
        {
          "internalType": "string",
          "name": "",
          "type": "string"
        }
      ],
      "stateMutability": "view",
      "type": "function",
      "constant": true
    },
    {
      "inputs": [],
      "name": "totalSupply",
      "outputs": [
        {
          "internalType": "uint256",
          "name": "",
          "type": "uint256"
        }
      ],
      "stateMutability": "view",
      "type": "function",
      "constant": true
    },
    {
      "inputs": [
        {
          "internalType": "string",
          "name": "_kryptoBird",
          "type": "string"
        }
      ],
      "name": "mint",
      "outputs": [],
      "stateMutability": "nonpayable",
      "type": "function"
    }
  ],
  "bytecode": "0x60806040523480156200001157600080fd5b506040518060400160405280600a81526020017f4b727970746f42697264000000000000000000000000000000000000000000008152506040518060400160405280600681526020017f4b424952445a00000000000000000000000000000000000000000000000000008152508181816000908051906020019062000098929190620000bc565b508060019080519060200190620000b1929190620000bc565b5050505050620001d1565b828054620000ca906200019b565b90600052602060002090601f016020900481019282620000ee57600085556200013a565b82601f106200010957805160ff19168380011785556200013a565b828001600101855582156200013a579182015b82811115620001395782518255916020019190600101906200011c565b5b5090506200014991906200014d565b5090565b5b80821115620001685760008160009055506001016200014e565b5090565b7f4e487b7100000000000000000000000000000000000000000000000000000000600052602260045260246000fd5b60006002820490506001821680620001b457607f821691505b60208210811415620001cb57620001ca6200016c565b5b50919050565b61108680620001e16000396000f3fe608060405234801561001057600080fd5b506004361061007d5760003560e01c806370a082311161005b57806370a08231146100ee57806393ab6e561461011e57806395d89b411461014e578063d85d3d271461016c5761007d565b806306fdde031461008257806318160ddd146100a05780636352211e146100be575b600080fd5b61008a610188565b6040516100979190610985565b60405180910390f35b6100a861021a565b6040516100b591906109c0565b60405180910390f35b6100d860048036038101906100d39190610a1b565b610227565b6040516100e59190610a89565b60405180910390f35b61010860048036038101906101039190610ad0565b6102d9565b60405161011591906109c0565b60405180910390f35b61013860048036038101906101339190610a1b565b610391565b6040516101459190610985565b60405180910390f35b61015661043d565b6040516101639190610985565b60405180910390f35b61018660048036038101906101819190610c32565b6104cf565b005b60606000805461019790610caa565b80601f01602080910402602001604051908101604052809291908181526020018280546101c390610caa565b80156102105780601f106101e557610100808354040283529160200191610210565b820191906000526020600020905b8154815290600101906020018083116101f357829003601f168201915b5050505050905090565b6000600480549050905090565b6000806002600084815260200190815260200160002060009054906101000a900473ffffffffffffffffffffffffffffffffffffffff169050600073ffffffffffffffffffffffffffffffffffffffff168173ffffffffffffffffffffffffffffffffffffffff1614156102d0576040517f08c379a00000000000000000000000000000000000000000000000000000000081526004016102c790610d28565b60405180910390fd5b80915050919050565b60008073ffffffffffffffffffffffffffffffffffffffff168273ffffffffffffffffffffffffffffffffffffffff16141561034a576040517f08c379a000000000000000000000000000000000000000000000000000000000815260040161034190610d94565b60405180910390fd5b600360008373ffffffffffffffffffffffffffffffffffffffff1673ffffffffffffffffffffffffffffffffffffffff168152602001908152602001600020549050919050565b600881815481106103a157600080fd5b9060005260206000200160009150905080546103bc90610caa565b80601f01602080910402602001604051908101604052809291908181526020018280546103e890610caa565b80156104355780601f1061040a57610100808354040283529160200191610435565b820191906000526020600020905b81548152906001019060200180831161041857829003601f168201915b505050505081565b60606001805461044c90610caa565b80601f016020809104026020016040519081016040528092919081815260200182805461047890610caa565b80156104c55780601f1061049a576101008083540402835291602001916104c5565b820191906000526020600020905b8154815290600101906020018083116104a857829003601f168201915b5050505050905090565b6009816040516104df9190610df0565b908152602001604051809103902060009054906101000a900460ff161561053b576040517f08c379a000000000000000000000000000000000000000000000000000000000815260040161053290610e79565b60405180910390fd5b600881908060018154018082558091505060019003906000526020600020016000909190919091509080519060200190610576929190610849565b506000600160088054905061058b9190610ec8565b905061059733826105d2565b60016009836040516105a99190610df0565b908152602001604051809103902060006101000a81548160ff0219169083151502179055505050565b6105dc82826105e9565b6105e5816107ab565b5050565b600073ffffffffffffffffffffffffffffffffffffffff168273ffffffffffffffffffffffffffffffffffffffff161415610659576040517f08c379a000000000000000000000000000000000000000000000000000000000815260040161065090610f6e565b60405180910390fd5b610662816107d7565b156106a2576040517f08c379a000000000000000000000000000000000000000000000000000000000815260040161069990610fda565b60405180910390fd5b816002600083815260200190815260200160002060006101000a81548173ffffffffffffffffffffffffffffffffffffffff021916908373ffffffffffffffffffffffffffffffffffffffff1602179055506001600360008473ffffffffffffffffffffffffffffffffffffffff1673ffffffffffffffffffffffffffffffffffffffff16815260200190815260200160002060008282546107449190610ffa565b92505081905550808273ffffffffffffffffffffffffffffffffffffffff16600073ffffffffffffffffffffffffffffffffffffffff167fddf252ad1be2c89b69c2b068fc378daa952ba7f163c4a11628f55a4df523b3ef60405160405180910390a45050565b600481908060018154018082558091505060019003906000526020600020016000909190919091505550565b6000806002600084815260200190815260200160002060009054906101000a900473ffffffffffffffffffffffffffffffffffffffff169050600073ffffffffffffffffffffffffffffffffffffffff168173ffffffffffffffffffffffffffffffffffffffff161415915050919050565b82805461085590610caa565b90600052602060002090601f01602090048101928261087757600085556108be565b82601f1061089057805160ff19168380011785556108be565b828001600101855582156108be579182015b828111156108bd5782518255916020019190600101906108a2565b5b5090506108cb91906108cf565b5090565b5b808211156108e85760008160009055506001016108d0565b5090565b600081519050919050565b600082825260208201905092915050565b60005b8381101561092657808201518184015260208101905061090b565b83811115610935576000848401525b50505050565b6000601f19601f8301169050919050565b6000610957826108ec565b61096181856108f7565b9350610971818560208601610908565b61097a8161093b565b840191505092915050565b6000602082019050818103600083015261099f818461094c565b905092915050565b6000819050919050565b6109ba816109a7565b82525050565b60006020820190506109d560008301846109b1565b92915050565b6000604051905090565b600080fd5b600080fd5b6109f8816109a7565b8114610a0357600080fd5b50565b600081359050610a15816109ef565b92915050565b600060208284031215610a3157610a306109e5565b5b6000610a3f84828501610a06565b91505092915050565b600073ffffffffffffffffffffffffffffffffffffffff82169050919050565b6000610a7382610a48565b9050919050565b610a8381610a68565b82525050565b6000602082019050610a9e6000830184610a7a565b92915050565b610aad81610a68565b8114610ab857600080fd5b50565b600081359050610aca81610aa4565b92915050565b600060208284031215610ae657610ae56109e5565b5b6000610af484828501610abb565b91505092915050565b600080fd5b600080fd5b7f4e487b7100000000000000000000000000000000000000000000000000000000600052604160045260246000fd5b610b3f8261093b565b810181811067ffffffffffffffff82111715610b5e57610b5d610b07565b5b80604052505050565b6000610b716109db565b9050610b7d8282610b36565b919050565b600067ffffffffffffffff821115610b9d57610b9c610b07565b5b610ba68261093b565b9050602081019050919050565b82818337600083830152505050565b6000610bd5610bd084610b82565b610b67565b905082815260208101848484011115610bf157610bf0610b02565b5b610bfc848285610bb3565b509392505050565b600082601f830112610c1957610c18610afd565b5b8135610c29848260208601610bc2565b91505092915050565b600060208284031215610c4857610c476109e5565b5b600082013567ffffffffffffffff811115610c6657610c656109ea565b5b610c7284828501610c04565b91505092915050565b7f4e487b7100000000000000000000000000000000000000000000000000000000600052602260045260246000fd5b60006002820490506001821680610cc257607f821691505b60208210811415610cd657610cd5610c7b565b5b50919050565b7f4f776e657220646f6573206e6f74206578697374000000000000000000000000600082015250565b6000610d126014836108f7565b9150610d1d82610cdc565b602082019050919050565b60006020820190508181036000830152610d4181610d05565b9050919050565b7f546f6b656e20646f6573206e6f74206578697374000000000000000000000000600082015250565b6000610d7e6014836108f7565b9150610d8982610d48565b602082019050919050565b60006020820190508181036000830152610dad81610d71565b9050919050565b600081905092915050565b6000610dca826108ec565b610dd48185610db4565b9350610de4818560208601610908565b80840191505092915050565b6000610dfc8284610dbf565b915081905092915050565b7f4572726f72202d206b727970746f4269726420616c726561647920657869737460008201527f7300000000000000000000000000000000000000000000000000000000000000602082015250565b6000610e636021836108f7565b9150610e6e82610e07565b604082019050919050565b60006020820190508181036000830152610e9281610e56565b9050919050565b7f4e487b7100000000000000000000000000000000000000000000000000000000600052601160045260246000fd5b6000610ed3826109a7565b9150610ede836109a7565b925082821015610ef157610ef0610e99565b5b828203905092915050565b7f4552433732313a206d696e74696e6720746f20746865207a65726f206164647260008201527f6573730000000000000000000000000000000000000000000000000000000000602082015250565b6000610f586023836108f7565b9150610f6382610efc565b604082019050919050565b60006020820190508181036000830152610f8781610f4b565b9050919050565b7f4552433732313a20746f6b656e20616c7265616479206d696e74656400000000600082015250565b6000610fc4601c836108f7565b9150610fcf82610f8e565b602082019050919050565b60006020820190508181036000830152610ff381610fb7565b9050919050565b6000611005826109a7565b9150611010836109a7565b9250827fffffffffffffffffffffffffffffffffffffffffffffffffffffffffffffffff0382111561104557611044610e99565b5b82820190509291505056fea2646970667358221220d5ee97ef74aef99c6ad42c6068f390639aa70109939a49ffe79566e778359c1464736f6c634300080b0033",
  "immutableReferences": {},
  "source": "// SPDX-License-Identifier: MIT\npragma solidity >=0.4.22 <0.9.0;\n\nimport \"./ERC721Connector.sol\";\n\n//this will store the information that wull run and deploy into the blockchain to test code\ncontract KryptoBird is ERC721Connector {\n    //create an array to store the kryptobird nfts\n    string[] public kryptoBirdz;\n\n    mapping(string => bool) _kryptoBirdzExists;\n\n    function mint(string memory _kryptoBird) public {\n        require(\n            !_kryptoBirdzExists[_kryptoBird],\n            \"Error - kryptoBird already exists\"\n        );\n\n        // deprecated .push  uint _id = KryptoBirdz.push(_kryptoBird);\n        //.push method in solidity no longer returns length\n        kryptoBirdz.push(_kryptoBird);\n        uint256 _id = kryptoBirdz.length - 1;\n\n//the variable of the current caller\n        _mint(msg.sender, _id);\n\n        //this will make us access the same mapping\n        _kryptoBirdzExists[_kryptoBird] = true;\n    }\n\n    //we must have a name a symbol\n    // initialize this contact to inherit name ans symbol from\n    //erc721metadata.\n    constructor() ERC721Connector(\"KryptoBird\", \"KBIRDZ\") {}\n}\n",
  "sourcePath": "/Users/obinnauzozie/Downloads/nft-marketplace-starter-kit-main/Contracts/src/contracts/KryptoBirdz.sol",
  "compiler": {
    "name": "solc",
    "version": "0.8.11+commit.d7f03943.Emscripten.clang"
  },
  "schemaVersion": "3.4.5",
  "updatedAt": "2022-02-27T05:54:00.615Z",
  "networkType": "ethereum",
  "devdoc": {
    "kind": "dev",
    "methods": {
      "balanceOf(address)": {
        "details": "@param _owner The address of who we query the balance",
        "returns": {
          "_0": ""
        }
      },
      "ownerOf(uint256)": {
        "details": "@param _tokenId the id for an NFT",
        "returns": {
          "_0": ""
        }
      }
    },
    "version": 1
  },
  "userdoc": {
    "kind": "user",
    "methods": {
      "balanceOf(address)": {
        "notice": "Count all NFTs assigned to an Owner"
      },
      "ownerOf(uint256)": {
        "notice": "Finding the Owner of an NFT"
      }
    },
    "version": 1
  }
}