{
  "contractName": "KryptoBird",
  "abi": [
    {
      "inputs": [],
      "stateMutability": "nonpayable",
      "type": "constructor"
    },
    {
      "anonymous": false,
      "inputs": [
        {
          "indexed": true,
          "internalType": "address",
          "name": "from",
          "type": "address"
        },
        {
          "indexed": true,
          "internalType": "address",
          "name": "to",
          "type": "address"
        },
        {
          "indexed": true,
          "internalType": "uint256",
          "name": "tokenId",
          "type": "uint256"
        }
      ],
      "name": "Transfer",
      "type": "event"
    },
    {
      "inputs": [
        {
          "internalType": "address",
          "name": "_owner",
          "type": "address"
        }
      ],
      "name": "balanceOf",
      "outputs": [
        {
          "internalType": "uint256",
          "name": "",
          "type": "uint256"
        }
      ],
      "stateMutability": "view",
      "type": "function",
      "constant": true
    },
    {
      "inputs": [
        {
          "internalType": "uint256",
          "name": "",
          "type": "uint256"
        }
      ],
      "name": "kryptoBirdz",
      "outputs": [
        {
          "internalType": "string",
          "name": "",
          "type": "string"
        }
      ],
      "stateMutability": "view",
      "type": "function",
      "constant": true
    },
    {
      "inputs": [],
      "name": "name",
      "outputs": [
        {
          "internalType": "string",
          "name": "",
          "type": "string"
        }
      ],
      "stateMutability": "view",
      "type": "function",
      "constant": true
    },
    {
      "inputs": [
        {
          "internalType": "uint256",
          "name": "_tokenId",
          "type": "uint256"
        }
      ],
      "name": "ownerOf",
      "outputs": [
        {
          "internalType": "address",
          "name": "",
          "type": "address"
        }
      ],
      "stateMutability": "view",
      "type": "function",
      "constant": true
    },
    {
      "inputs": [],
      "name": "symbol",
      "outputs": [
        {
          "internalType": "string",
          "name": "",
          "type": "string"
        }
      ],
      "stateMutability": "view",
      "type": "function",
      "constant": true
    },
    {
      "inputs": [
        {
          "internalType": "string",
          "name": "_kryptoBird",
          "type": "string"
        }
      ],
      "name": "mint",
      "outputs": [],
      "stateMutability": "nonpayable",
      "type": "function"
    }
  ],
  "bytecode": "0x60806040523480156200001157600080fd5b506040518060400160405280600a81526020017f4b727970746f42697264000000000000000000000000000000000000000000008152506040518060400160405280600681526020017f4b424952445a00000000000000000000000000000000000000000000000000008152508181816000908051906020019062000098929190620000bc565b508060019080519060200190620000b1929190620000bc565b5050505050620001d1565b828054620000ca906200019b565b90600052602060002090601f016020900481019282620000ee57600085556200013a565b82601f106200010957805160ff19168380011785556200013a565b828001600101855582156200013a579182015b82811115620001395782518255916020019190600101906200011c565b5b5090506200014991906200014d565b5090565b5b80821115620001685760008160009055506001016200014e565b5090565b7f4e487b7100000000000000000000000000000000000000000000000000000000600052602260045260246000fd5b60006002820490506001821680620001b457607f821691505b60208210811415620001cb57620001ca6200016c565b5b50919050565b610ffd80620001e16000396000f3fe608060405234801561001057600080fd5b50600436106100625760003560e01c806306fdde03146100675780636352211e1461008557806370a08231146100b557806393ab6e56146100e557806395d89b4114610115578063d85d3d2714610133575b600080fd5b61006f61014f565b60405161007c91906108fc565b60405180910390f35b61009f600480360381019061009a9190610968565b6101e1565b6040516100ac91906109d6565b60405180910390f35b6100cf60048036038101906100ca9190610a1d565b610293565b6040516100dc9190610a59565b60405180910390f35b6100ff60048036038101906100fa9190610968565b61034b565b60405161010c91906108fc565b60405180910390f35b61011d6103f7565b60405161012a91906108fc565b60405180910390f35b61014d60048036038101906101489190610ba9565b610489565b005b60606000805461015e90610c21565b80601f016020809104026020016040519081016040528092919081815260200182805461018a90610c21565b80156101d75780601f106101ac576101008083540402835291602001916101d7565b820191906000526020600020905b8154815290600101906020018083116101ba57829003601f168201915b5050505050905090565b6000806002600084815260200190815260200160002060009054906101000a900473ffffffffffffffffffffffffffffffffffffffff169050600073ffffffffffffffffffffffffffffffffffffffff168173ffffffffffffffffffffffffffffffffffffffff16141561028a576040517f08c379a000000000000000000000000000000000000000000000000000000000815260040161028190610c9f565b60405180910390fd5b80915050919050565b60008073ffffffffffffffffffffffffffffffffffffffff168273ffffffffffffffffffffffffffffffffffffffff161415610304576040517f08c379a00000000000000000000000000000000000000000000000000000000081526004016102fb90610d0b565b60405180910390fd5b600360008373ffffffffffffffffffffffffffffffffffffffff1673ffffffffffffffffffffffffffffffffffffffff168152602001908152602001600020549050919050565b6004818154811061035b57600080fd5b90600052602060002001600091509050805461037690610c21565b80601f01602080910402602001604051908101604052809291908181526020018280546103a290610c21565b80156103ef5780601f106103c4576101008083540402835291602001916103ef565b820191906000526020600020905b8154815290600101906020018083116103d257829003601f168201915b505050505081565b60606001805461040690610c21565b80601f016020809104026020016040519081016040528092919081815260200182805461043290610c21565b801561047f5780601f106104545761010080835404028352916020019161047f565b820191906000526020600020905b81548152906001019060200180831161046257829003601f168201915b5050505050905090565b6005816040516104999190610d67565b908152602001604051809103902060009054906101000a900460ff16156104f5576040517f08c379a00000000000000000000000000000000000000000000000000000000081526004016104ec90610df0565b60405180910390fd5b6004819080600181540180825580915050600190039060005260206000200160009091909190915090805190602001906105309291906107c0565b50600060016004805490506105459190610e3f565b9050610551338261058c565b60016005836040516105639190610d67565b908152602001604051809103902060006101000a81548160ff0219169083151502179055505050565b600073ffffffffffffffffffffffffffffffffffffffff168273ffffffffffffffffffffffffffffffffffffffff1614156105fc576040517f08c379a00000000000000000000000000000000000000000000000000000000081526004016105f390610ee5565b60405180910390fd5b6106058161074e565b15610645576040517f08c379a000000000000000000000000000000000000000000000000000000000815260040161063c90610f51565b60405180910390fd5b816002600083815260200190815260200160002060006101000a81548173ffffffffffffffffffffffffffffffffffffffff021916908373ffffffffffffffffffffffffffffffffffffffff1602179055506001600360008473ffffffffffffffffffffffffffffffffffffffff1673ffffffffffffffffffffffffffffffffffffffff16815260200190815260200160002060008282546106e79190610f71565b92505081905550808273ffffffffffffffffffffffffffffffffffffffff16600073ffffffffffffffffffffffffffffffffffffffff167fddf252ad1be2c89b69c2b068fc378daa952ba7f163c4a11628f55a4df523b3ef60405160405180910390a45050565b6000806002600084815260200190815260200160002060009054906101000a900473ffffffffffffffffffffffffffffffffffffffff169050600073ffffffffffffffffffffffffffffffffffffffff168173ffffffffffffffffffffffffffffffffffffffff161415915050919050565b8280546107cc90610c21565b90600052602060002090601f0160209004810192826107ee5760008555610835565b82601f1061080757805160ff1916838001178555610835565b82800160010185558215610835579182015b82811115610834578251825591602001919060010190610819565b5b5090506108429190610846565b5090565b5b8082111561085f576000816000905550600101610847565b5090565b600081519050919050565b600082825260208201905092915050565b60005b8381101561089d578082015181840152602081019050610882565b838111156108ac576000848401525b50505050565b6000601f19601f8301169050919050565b60006108ce82610863565b6108d8818561086e565b93506108e881856020860161087f565b6108f1816108b2565b840191505092915050565b6000602082019050818103600083015261091681846108c3565b905092915050565b6000604051905090565b600080fd5b600080fd5b6000819050919050565b61094581610932565b811461095057600080fd5b50565b6000813590506109628161093c565b92915050565b60006020828403121561097e5761097d610928565b5b600061098c84828501610953565b91505092915050565b600073ffffffffffffffffffffffffffffffffffffffff82169050919050565b60006109c082610995565b9050919050565b6109d0816109b5565b82525050565b60006020820190506109eb60008301846109c7565b92915050565b6109fa816109b5565b8114610a0557600080fd5b50565b600081359050610a17816109f1565b92915050565b600060208284031215610a3357610a32610928565b5b6000610a4184828501610a08565b91505092915050565b610a5381610932565b82525050565b6000602082019050610a6e6000830184610a4a565b92915050565b600080fd5b600080fd5b7f4e487b7100000000000000000000000000000000000000000000000000000000600052604160045260246000fd5b610ab6826108b2565b810181811067ffffffffffffffff82111715610ad557610ad4610a7e565b5b80604052505050565b6000610ae861091e565b9050610af48282610aad565b919050565b600067ffffffffffffffff821115610b1457610b13610a7e565b5b610b1d826108b2565b9050602081019050919050565b82818337600083830152505050565b6000610b4c610b4784610af9565b610ade565b905082815260208101848484011115610b6857610b67610a79565b5b610b73848285610b2a565b509392505050565b600082601f830112610b9057610b8f610a74565b5b8135610ba0848260208601610b39565b91505092915050565b600060208284031215610bbf57610bbe610928565b5b600082013567ffffffffffffffff811115610bdd57610bdc61092d565b5b610be984828501610b7b565b91505092915050565b7f4e487b7100000000000000000000000000000000000000000000000000000000600052602260045260246000fd5b60006002820490506001821680610c3957607f821691505b60208210811415610c4d57610c4c610bf2565b5b50919050565b7f4f776e657220646f6573206e6f74206578697374000000000000000000000000600082015250565b6000610c8960148361086e565b9150610c9482610c53565b602082019050919050565b60006020820190508181036000830152610cb881610c7c565b9050919050565b7f546f6b656e20646f6573206e6f74206578697374000000000000000000000000600082015250565b6000610cf560148361086e565b9150610d0082610cbf565b602082019050919050565b60006020820190508181036000830152610d2481610ce8565b9050919050565b600081905092915050565b6000610d4182610863565b610d4b8185610d2b565b9350610d5b81856020860161087f565b80840191505092915050565b6000610d738284610d36565b915081905092915050565b7f4572726f72202d206b727970746f4269726420616c726561647920657869737460008201527f7300000000000000000000000000000000000000000000000000000000000000602082015250565b6000610dda60218361086e565b9150610de582610d7e565b604082019050919050565b60006020820190508181036000830152610e0981610dcd565b9050919050565b7f4e487b7100000000000000000000000000000000000000000000000000000000600052601160045260246000fd5b6000610e4a82610932565b9150610e5583610932565b925082821015610e6857610e67610e10565b5b828203905092915050565b7f4552433732313a206d696e74696e6720746f20746865207a65726f206164647260008201527f6573730000000000000000000000000000000000000000000000000000000000602082015250565b6000610ecf60238361086e565b9150610eda82610e73565b604082019050919050565b60006020820190508181036000830152610efe81610ec2565b9050919050565b7f4552433732313a20746f6b656e20616c7265616479206d696e74656400000000600082015250565b6000610f3b601c8361086e565b9150610f4682610f05565b602082019050919050565b60006020820190508181036000830152610f6a81610f2e565b9050919050565b6000610f7c82610932565b9150610f8783610932565b9250827fffffffffffffffffffffffffffffffffffffffffffffffffffffffffffffffff03821115610fbc57610fbb610e10565b5b82820190509291505056fea26469706673582212206e25ca7c32844e00539f2d626d7b4bd51400985660f20f9585a3ae7f9e04d99c64736f6c634300080b0033",
  "immutableReferences": {},
  "source": "// SPDX-License-Identifier: MIT\npragma solidity >=0.4.22 <0.9.0;\n\nimport './ERC721Connector.sol';\n\n\n//this will store the information that wull run and deploy into the blockchain to test code \ncontract KryptoBird is ERC721Connector {\n\n   //create an array to store the kryptobird nfts\n   string[] public kryptoBirdz;\n\n   mapping(string => bool) _kryptoBirdzExists;\n   \n   function mint(string memory _kryptoBird) public {\n\n    require(!_kryptoBirdzExists[_kryptoBird], \n    'Error - kryptoBird already exists');\n\n\n    // deprecated .push  uint _id = KryptoBirdz.push(_kryptoBird);\n    //.push method in solidity no longer returns length\n    kryptoBirdz.push(_kryptoBird);\n    uint _id = kryptoBirdz.length -1;\n\n\n      _mint(msg.sender, _id);\n\n//this will make us access the same mapping\n      _kryptoBirdzExists[_kryptoBird] = true;\n\n\n   }\n\n\n\n\n\n\n   //we must have a name a symbol\n   // initialize this contact to inherit name ans symbol from\n   //erc721metadata. \n   constructor() ERC721Connector('KryptoBird', 'KBIRDZ')\n   {}\n\n}",
  "sourcePath": "/Users/obinnauzozie/Downloads/nft-marketplace-starter-kit-main/Contracts/src/contracts/KryptoBirdz.sol",
  "compiler": {
    "name": "solc",
    "version": "0.8.11+commit.d7f03943.Emscripten.clang"
  },
  "schemaVersion": "3.4.5",
  "updatedAt": "2022-02-27T04:45:23.181Z",
  "networkType": "ethereum",
  "devdoc": {
    "kind": "dev",
    "methods": {
      "balanceOf(address)": {
        "details": "@param _owner The address of who we query the balance",
        "returns": {
          "_0": ""
        }
      },
      "ownerOf(uint256)": {
        "details": "@param _tokenId the id for an NFT",
        "returns": {
          "_0": ""
        }
      }
    },
    "version": 1
  },
  "userdoc": {
    "kind": "user",
    "methods": {
      "balanceOf(address)": {
        "notice": "Count all NFTs assigned to an Owner"
      },
      "ownerOf(uint256)": {
        "notice": "Finding the Owner of an NFT"
      }
    },
    "version": 1
  }
}